{
  "_format": "hh-sol-artifact-1",
  "contractName": "lottery",
  "sourceName": "contracts/lottery.sol",
  "abi": [
    {
      "inputs": [],
      "stateMutability": "nonpayable",
      "type": "constructor"
    },
    {
      "inputs": [],
      "name": "Bal",
      "outputs": [
        {
          "internalType": "uint256",
          "name": "",
          "type": "uint256"
        }
      ],
      "stateMutability": "view",
      "type": "function"
    },
    {
      "inputs": [],
      "name": "Winner",
      "outputs": [],
      "stateMutability": "nonpayable",
      "type": "function"
    },
    {
      "inputs": [],
      "name": "enter",
      "outputs": [],
      "stateMutability": "payable",
      "type": "function"
    },
    {
      "inputs": [],
      "name": "generateRandom",
      "outputs": [
        {
          "internalType": "uint256",
          "name": "",
          "type": "uint256"
        }
      ],
      "stateMutability": "view",
      "type": "function"
    },
    {
      "inputs": [],
      "name": "owner",
      "outputs": [
        {
          "internalType": "address",
          "name": "",
          "type": "address"
        }
      ],
      "stateMutability": "view",
      "type": "function"
    },
    {
      "inputs": [
        {
          "internalType": "uint256",
          "name": "",
          "type": "uint256"
        }
      ],
      "name": "players",
      "outputs": [
        {
          "internalType": "address payable",
          "name": "",
          "type": "address"
        }
      ],
      "stateMutability": "view",
      "type": "function"
    },
    {
      "inputs": [],
      "name": "total",
      "outputs": [
        {
          "internalType": "uint256",
          "name": "",
          "type": "uint256"
        }
      ],
      "stateMutability": "view",
      "type": "function"
    }
  ],
  "bytecode": "0x608060405234801561001057600080fd5b50336000806101000a81548173ffffffffffffffffffffffffffffffffffffffff021916908373ffffffffffffffffffffffffffffffffffffffff160217905550610743806100606000396000f3fe6080604052600436106100705760003560e01c8063b2b98ed21161004e578063b2b98ed2146100f6578063bea69bb91461010d578063e97dcb6214610138578063f71d96cb1461014257610070565b806302e4af01146100755780632ddbd13a146100a05780638da5cb5b146100cb575b600080fd5b34801561008157600080fd5b5061008a61017f565b604051610097919061045b565b60405180910390f35b3480156100ac57600080fd5b506100b56101d3565b6040516100c2919061045b565b60405180910390f35b3480156100d757600080fd5b506100e06101e0565b6040516100ed91906104b7565b60405180910390f35b34801561010257600080fd5b5061010b610204565b005b34801561011957600080fd5b50610122610300565b60405161012f919061045b565b60405180910390f35b610140610308565b005b34801561014e57600080fd5b5061016960048036038101906101649190610503565b6103c5565b6040516101769190610551565b60405180910390f35b60008060009054906101000a900473ffffffffffffffffffffffffffffffffffffffff16426040516020016101b59291906105d5565b6040516020818303038152906040528051906020012060001c905090565b6000600180549050905090565b60008054906101000a900473ffffffffffffffffffffffffffffffffffffffff1681565b60008054906101000a900473ffffffffffffffffffffffffffffffffffffffff1673ffffffffffffffffffffffffffffffffffffffff163373ffffffffffffffffffffffffffffffffffffffff161461025c57600080fd5b600060018054905061026c61017f565b6102769190610630565b90506001818154811061028c5761028b610661565b5b9060005260206000200160009054906101000a900473ffffffffffffffffffffffffffffffffffffffff1673ffffffffffffffffffffffffffffffffffffffff166108fc479081150290604051600060405180830381858888f193505050501580156102fc573d6000803e3d6000fd5b5050565b600047905090565b671bc16d674ec800003414610352576040517f08c379a0000000000000000000000000000000000000000000000000000000008152600401610349906106ed565b60405180910390fd5b6001339080600181540180825580915050600190039060005260206000200160009091909190916101000a81548173ffffffffffffffffffffffffffffffffffffffff021916908373ffffffffffffffffffffffffffffffffffffffff160217905550600160006103c39190610404565b565b600181815481106103d557600080fd5b906000526020600020016000915054906101000a900473ffffffffffffffffffffffffffffffffffffffff1681565b50805460008255906000526020600020908101906104229190610425565b50565b5b8082111561043e576000816000905550600101610426565b5090565b6000819050919050565b61045581610442565b82525050565b6000602082019050610470600083018461044c565b92915050565b600073ffffffffffffffffffffffffffffffffffffffff82169050919050565b60006104a182610476565b9050919050565b6104b181610496565b82525050565b60006020820190506104cc60008301846104a8565b92915050565b600080fd5b6104e081610442565b81146104eb57600080fd5b50565b6000813590506104fd816104d7565b92915050565b600060208284031215610519576105186104d2565b5b6000610527848285016104ee565b91505092915050565b600061053b82610476565b9050919050565b61054b81610530565b82525050565b60006020820190506105666000830184610542565b92915050565b60008160601b9050919050565b60006105848261056c565b9050919050565b600061059682610579565b9050919050565b6105ae6105a982610496565b61058b565b82525050565b6000819050919050565b6105cf6105ca82610442565b6105b4565b82525050565b60006105e1828561059d565b6014820191506105f182846105be565b6020820191508190509392505050565b7f4e487b7100000000000000000000000000000000000000000000000000000000600052601260045260246000fd5b600061063b82610442565b915061064683610442565b92508261065657610655610601565b5b828206905092915050565b7f4e487b7100000000000000000000000000000000000000000000000000000000600052603260045260246000fd5b600082825260208201905092915050565b7f322065746865727320697320746865207469636b657420707269636500000000600082015250565b60006106d7601c83610690565b91506106e2826106a1565b602082019050919050565b60006020820190508181036000830152610706816106ca565b905091905056fea26469706673582212205effaeb6e989e99f4d6109b5c3a5588ed758cfbf62e97cac645dda58da3886b764736f6c63430008090033",
  "linkReferences": {},
  "deployedLinkReferences": {}
}